{
  "_format": "hh-sol-artifact-1",
  "contractName": "EtherBank",
  "sourceName": "contracts/etherbank.sol",
  "abi": [
    {
      "constant": false,
      "inputs": [],
      "name": "withdrawBalance",
      "outputs": [],
      "payable": false,
      "stateMutability": "nonpayable",
      "type": "function"
    },
    {
      "constant": false,
      "inputs": [],
      "name": "addToBalance",
      "outputs": [],
      "payable": false,
      "stateMutability": "nonpayable",
      "type": "function"
    },
    {
      "constant": true,
      "inputs": [
        {
          "name": "user",
          "type": "address"
        }
      ],
      "name": "getBalance",
      "outputs": [
        {
          "name": "",
          "type": "uint256"
        }
      ],
      "payable": false,
      "stateMutability": "view",
      "type": "function"
    }
  ],
  "bytecode": "0x608060405234801561001057600080fd5b50610264806100206000396000f300608060405260043610610057576000357c0100000000000000000000000000000000000000000000000000000000900463ffffffff1680635fd8c7101461005c578063c0e317fb14610073578063f8b2cb4f1461008a575b600080fd5b34801561006857600080fd5b506100716100e1565b005b34801561007f57600080fd5b506100886101a2565b005b34801561009657600080fd5b506100cb600480360381019080803573ffffffffffffffffffffffffffffffffffffffff1690602001909291905050506101f0565b6040518082815260200191505060405180910390f35b60008060003373ffffffffffffffffffffffffffffffffffffffff1673ffffffffffffffffffffffffffffffffffffffff1681526020019081526020016000205490503373ffffffffffffffffffffffffffffffffffffffff168160405160006040518083038185875af192505050151561015b57600080fd5b60008060003373ffffffffffffffffffffffffffffffffffffffff1673ffffffffffffffffffffffffffffffffffffffff1681526020019081526020016000208190555050565b346000803373ffffffffffffffffffffffffffffffffffffffff1673ffffffffffffffffffffffffffffffffffffffff16815260200190815260200160002060008282540192505081905550565b60008060008373ffffffffffffffffffffffffffffffffffffffff1673ffffffffffffffffffffffffffffffffffffffff1681526020019081526020016000205490509190505600a165627a7a7230582037ad6f6cbe864100994e51c55334014d3e29b75c8f57e0383b38bf7cb5dd096f0029",
  "linkReferences": {},
  "deployedLinkReferences": {}
}