{
  "_format": "hh-sol-artifact-1",
  "contractName": "KickBNB",
  "sourceName": "contracts/KickBNB.sol",
  "abi": [
    {
      "inputs": [
        {
          "internalType": "uint256",
          "name": "_price",
          "type": "uint256"
        },
        {
          "internalType": "uint256",
          "name": "_numGuests",
          "type": "uint256"
        }
      ],
      "stateMutability": "nonpayable",
      "type": "constructor"
    },
    {
      "inputs": [],
      "name": "cancel",
      "outputs": [],
      "stateMutability": "nonpayable",
      "type": "function"
    },
    {
      "inputs": [],
      "name": "confirm",
      "outputs": [],
      "stateMutability": "nonpayable",
      "type": "function"
    },
    {
      "inputs": [],
      "name": "deposit",
      "outputs": [],
      "stateMutability": "payable",
      "type": "function"
    },
    {
      "inputs": [],
      "name": "numGuests",
      "outputs": [
        {
          "internalType": "uint256",
          "name": "",
          "type": "uint256"
        }
      ],
      "stateMutability": "view",
      "type": "function"
    },
    {
      "inputs": [],
      "name": "numRegisteredGuests",
      "outputs": [
        {
          "internalType": "uint256",
          "name": "",
          "type": "uint256"
        }
      ],
      "stateMutability": "view",
      "type": "function"
    },
    {
      "inputs": [],
      "name": "owner",
      "outputs": [
        {
          "internalType": "address payable",
          "name": "",
          "type": "address"
        }
      ],
      "stateMutability": "view",
      "type": "function"
    },
    {
      "inputs": [],
      "name": "price",
      "outputs": [
        {
          "internalType": "uint256",
          "name": "",
          "type": "uint256"
        }
      ],
      "stateMutability": "view",
      "type": "function"
    },
    {
      "inputs": [
        {
          "internalType": "address",
          "name": "",
          "type": "address"
        }
      ],
      "name": "registeredGuests",
      "outputs": [
        {
          "internalType": "bool",
          "name": "",
          "type": "bool"
        }
      ],
      "stateMutability": "view",
      "type": "function"
    }
  ],
  "bytecode": "0x608060405234801561001057600080fd5b50604051610869380380610869833981810160405281019061003291906100ca565b336000806101000a81548173ffffffffffffffffffffffffffffffffffffffff021916908373ffffffffffffffffffffffffffffffffffffffff16021790555081600181905550806002819055506000600381905550505061010a565b600080fd5b6000819050919050565b6100a781610094565b81146100b257600080fd5b50565b6000815190506100c48161009e565b92915050565b600080604083850312156100e1576100e061008f565b5b60006100ef858286016100b5565b9250506020610100858286016100b5565b9150509250929050565b610750806101196000396000f3fe60806040526004361061007b5760003560e01c8063a035b1fe1161004e578063a035b1fe1461012a578063b0a8fc6814610155578063d0e30db014610180578063ea8a1af01461018a5761007b565b80632f24ec10146100805780636955c93b146100bd5780637022b58e146100e85780638da5cb5b146100ff575b600080fd5b34801561008c57600080fd5b506100a760048036038101906100a291906104ff565b6101a1565b6040516100b49190610547565b60405180910390f35b3480156100c957600080fd5b506100d26101c1565b6040516100df919061057b565b60405180910390f35b3480156100f457600080fd5b506100fd6101c7565b005b34801561010b57600080fd5b50610114610248565b60405161012191906105b7565b60405180910390f35b34801561013657600080fd5b5061013f61026c565b60405161014c919061057b565b60405180910390f35b34801561016157600080fd5b5061016a610272565b604051610177919061057b565b60405180910390f35b610188610278565b005b34801561019657600080fd5b5061019f61035c565b005b60046020528060005260406000206000915054906101000a900460ff1681565b60025481565b60008054906101000a900473ffffffffffffffffffffffffffffffffffffffff1673ffffffffffffffffffffffffffffffffffffffff163373ffffffffffffffffffffffffffffffffffffffff161461021f57600080fd5b6002546003541461022f57600080fd5b3373ffffffffffffffffffffffffffffffffffffffff16ff5b60008054906101000a900473ffffffffffffffffffffffffffffffffffffffff1681565b60015481565b60035481565b6002546001546102889190610630565b341461029357600080fd5b600460003373ffffffffffffffffffffffffffffffffffffffff1673ffffffffffffffffffffffffffffffffffffffff16815260200190815260200160002060009054906101000a900460ff16156102ea57600080fd5b6001600460003373ffffffffffffffffffffffffffffffffffffffff1673ffffffffffffffffffffffffffffffffffffffff16815260200190815260200160002060006101000a81548160ff0219169083151502179055506003600081548092919061035590610661565b9190505550565b600460003373ffffffffffffffffffffffffffffffffffffffff1673ffffffffffffffffffffffffffffffffffffffff16815260200190815260200160002060009054906101000a900460ff166103b257600080fd5b3373ffffffffffffffffffffffffffffffffffffffff166002546001546103d99190610630565b6040516103e5906106db565b60006040518083038185875af1925050503d8060008114610422576040519150601f19603f3d011682016040523d82523d6000602084013e610427565b606091505b5050506000600460003373ffffffffffffffffffffffffffffffffffffffff1673ffffffffffffffffffffffffffffffffffffffff16815260200190815260200160002060006101000a81548160ff02191690831515021790555060036000815480929190610495906106f0565b9190505550565b600080fd5b600073ffffffffffffffffffffffffffffffffffffffff82169050919050565b60006104cc826104a1565b9050919050565b6104dc816104c1565b81146104e757600080fd5b50565b6000813590506104f9816104d3565b92915050565b6000602082840312156105155761051461049c565b5b6000610523848285016104ea565b91505092915050565b60008115159050919050565b6105418161052c565b82525050565b600060208201905061055c6000830184610538565b92915050565b6000819050919050565b61057581610562565b82525050565b6000602082019050610590600083018461056c565b92915050565b60006105a1826104a1565b9050919050565b6105b181610596565b82525050565b60006020820190506105cc60008301846105a8565b92915050565b7f4e487b7100000000000000000000000000000000000000000000000000000000600052601260045260246000fd5b7f4e487b7100000000000000000000000000000000000000000000000000000000600052601160045260246000fd5b600061063b82610562565b915061064683610562565b925082610656576106556105d2565b5b828204905092915050565b600061066c82610562565b91507fffffffffffffffffffffffffffffffffffffffffffffffffffffffffffffffff82141561069f5761069e610601565b5b600182019050919050565b600081905092915050565b50565b60006106c56000836106aa565b91506106d0826106b5565b600082019050919050565b60006106e6826106b8565b9150819050919050565b60006106fb82610562565b9150600082141561070f5761070e610601565b5b60018203905091905056fea26469706673582212204bdec99f6284cd93372f4caf344b8ae517fda43728d1503eecb00ed5aac3ae3c64736f6c634300080a0033",
  "linkReferences": {},
  "deployedLinkReferences": {}
}